{
  "_format": "hh-sol-artifact-1",
  "contractName": "NFTMarketplace",
  "sourceName": "contracts/NFTMarketplace.sol",
  "abi": [
    {
      "inputs": [],
      "stateMutability": "nonpayable",
      "type": "constructor"
    },
    {
      "anonymous": false,
      "inputs": [
        {
          "indexed": true,
          "internalType": "address",
          "name": "owner",
          "type": "address"
        },
        {
          "indexed": true,
          "internalType": "address",
          "name": "approved",
          "type": "address"
        },
        {
          "indexed": true,
          "internalType": "uint256",
          "name": "tokenId",
          "type": "uint256"
        }
      ],
      "name": "Approval",
      "type": "event"
    },
    {
      "anonymous": false,
      "inputs": [
        {
          "indexed": true,
          "internalType": "address",
          "name": "owner",
          "type": "address"
        },
        {
          "indexed": true,
          "internalType": "address",
          "name": "operator",
          "type": "address"
        },
        {
          "indexed": false,
          "internalType": "bool",
          "name": "approved",
          "type": "bool"
        }
      ],
      "name": "ApprovalForAll",
      "type": "event"
    },
    {
      "anonymous": false,
      "inputs": [
        {
          "indexed": false,
          "internalType": "uint256",
          "name": "_fromTokenId",
          "type": "uint256"
        },
        {
          "indexed": false,
          "internalType": "uint256",
          "name": "_toTokenId",
          "type": "uint256"
        }
      ],
      "name": "BatchMetadataUpdate",
      "type": "event"
    },
    {
      "anonymous": false,
      "inputs": [
        {
          "indexed": false,
          "internalType": "uint256",
          "name": "_tokenId",
          "type": "uint256"
        }
      ],
      "name": "MetadataUpdate",
      "type": "event"
    },
    {
      "anonymous": false,
      "inputs": [
        {
          "indexed": true,
          "internalType": "address",
          "name": "from",
          "type": "address"
        },
        {
          "indexed": true,
          "internalType": "address",
          "name": "to",
          "type": "address"
        },
        {
          "indexed": true,
          "internalType": "uint256",
          "name": "tokenId",
          "type": "uint256"
        }
      ],
      "name": "Transfer",
      "type": "event"
    },
    {
      "inputs": [
        {
          "internalType": "address",
          "name": "to",
          "type": "address"
        },
        {
          "internalType": "uint256",
          "name": "tokenId",
          "type": "uint256"
        }
      ],
      "name": "approve",
      "outputs": [],
      "stateMutability": "nonpayable",
      "type": "function"
    },
    {
      "inputs": [
        {
          "internalType": "address",
          "name": "owner",
          "type": "address"
        }
      ],
      "name": "balanceOf",
      "outputs": [
        {
          "internalType": "uint256",
          "name": "",
          "type": "uint256"
        }
      ],
      "stateMutability": "view",
      "type": "function"
    },
    {
      "inputs": [
        {
          "internalType": "string",
          "name": "tokenURI",
          "type": "string"
        },
        {
          "internalType": "uint256",
          "name": "price",
          "type": "uint256"
        }
      ],
      "name": "createToken",
      "outputs": [
        {
          "internalType": "uint256",
          "name": "",
          "type": "uint256"
        }
      ],
      "stateMutability": "payable",
      "type": "function"
    },
    {
      "inputs": [
        {
          "internalType": "uint256",
          "name": "tokenId",
          "type": "uint256"
        }
      ],
      "name": "executeSale",
      "outputs": [],
      "stateMutability": "payable",
      "type": "function"
    },
    {
      "inputs": [],
      "name": "getAllNFTs",
      "outputs": [
        {
          "components": [
            {
              "internalType": "uint256",
              "name": "tokenId",
              "type": "uint256"
            },
            {
              "internalType": "address payable",
              "name": "owner",
              "type": "address"
            },
            {
              "internalType": "address payable",
              "name": "seller",
              "type": "address"
            },
            {
              "internalType": "uint256",
              "name": "price",
              "type": "uint256"
            },
            {
              "internalType": "bool",
              "name": "currentlyListed",
              "type": "bool"
            }
          ],
          "internalType": "struct NFTMarketplace.ListedToken[]",
          "name": "",
          "type": "tuple[]"
        }
      ],
      "stateMutability": "view",
      "type": "function"
    },
    {
      "inputs": [
        {
          "internalType": "uint256",
          "name": "tokenId",
          "type": "uint256"
        }
      ],
      "name": "getApproved",
      "outputs": [
        {
          "internalType": "address",
          "name": "",
          "type": "address"
        }
      ],
      "stateMutability": "view",
      "type": "function"
    },
    {
      "inputs": [],
      "name": "getCurrentToken",
      "outputs": [
        {
          "internalType": "uint256",
          "name": "",
          "type": "uint256"
        }
      ],
      "stateMutability": "view",
      "type": "function"
    },
    {
      "inputs": [],
      "name": "getLatestIdToListedToken",
      "outputs": [
        {
          "components": [
            {
              "internalType": "uint256",
              "name": "tokenId",
              "type": "uint256"
            },
            {
              "internalType": "address payable",
              "name": "owner",
              "type": "address"
            },
            {
              "internalType": "address payable",
              "name": "seller",
              "type": "address"
            },
            {
              "internalType": "uint256",
              "name": "price",
              "type": "uint256"
            },
            {
              "internalType": "bool",
              "name": "currentlyListed",
              "type": "bool"
            }
          ],
          "internalType": "struct NFTMarketplace.ListedToken",
          "name": "",
          "type": "tuple"
        }
      ],
      "stateMutability": "view",
      "type": "function"
    },
    {
      "inputs": [],
      "name": "getListPrice",
      "outputs": [
        {
          "internalType": "uint256",
          "name": "",
          "type": "uint256"
        }
      ],
      "stateMutability": "view",
      "type": "function"
    },
    {
      "inputs": [
        {
          "internalType": "uint256",
          "name": "tokenId",
          "type": "uint256"
        }
      ],
      "name": "getListedForTokenId",
      "outputs": [
        {
          "components": [
            {
              "internalType": "uint256",
              "name": "tokenId",
              "type": "uint256"
            },
            {
              "internalType": "address payable",
              "name": "owner",
              "type": "address"
            },
            {
              "internalType": "address payable",
              "name": "seller",
              "type": "address"
            },
            {
              "internalType": "uint256",
              "name": "price",
              "type": "uint256"
            },
            {
              "internalType": "bool",
              "name": "currentlyListed",
              "type": "bool"
            }
          ],
          "internalType": "struct NFTMarketplace.ListedToken",
          "name": "",
          "type": "tuple"
        }
      ],
      "stateMutability": "view",
      "type": "function"
    },
    {
      "inputs": [],
      "name": "getMyNFTs",
      "outputs": [
        {
          "components": [
            {
              "internalType": "uint256",
              "name": "tokenId",
              "type": "uint256"
            },
            {
              "internalType": "address payable",
              "name": "owner",
              "type": "address"
            },
            {
              "internalType": "address payable",
              "name": "seller",
              "type": "address"
            },
            {
              "internalType": "uint256",
              "name": "price",
              "type": "uint256"
            },
            {
              "internalType": "bool",
              "name": "currentlyListed",
              "type": "bool"
            }
          ],
          "internalType": "struct NFTMarketplace.ListedToken[]",
          "name": "",
          "type": "tuple[]"
        }
      ],
      "stateMutability": "view",
      "type": "function"
    },
    {
      "inputs": [
        {
          "internalType": "address",
          "name": "owner",
          "type": "address"
        },
        {
          "internalType": "address",
          "name": "operator",
          "type": "address"
        }
      ],
      "name": "isApprovedForAll",
      "outputs": [
        {
          "internalType": "bool",
          "name": "",
          "type": "bool"
        }
      ],
      "stateMutability": "view",
      "type": "function"
    },
    {
      "inputs": [],
      "name": "name",
      "outputs": [
        {
          "internalType": "string",
          "name": "",
          "type": "string"
        }
      ],
      "stateMutability": "view",
      "type": "function"
    },
    {
      "inputs": [
        {
          "internalType": "uint256",
          "name": "tokenId",
          "type": "uint256"
        }
      ],
      "name": "ownerOf",
      "outputs": [
        {
          "internalType": "address",
          "name": "",
          "type": "address"
        }
      ],
      "stateMutability": "view",
      "type": "function"
    },
    {
      "inputs": [
        {
          "internalType": "address",
          "name": "from",
          "type": "address"
        },
        {
          "internalType": "address",
          "name": "to",
          "type": "address"
        },
        {
          "internalType": "uint256",
          "name": "tokenId",
          "type": "uint256"
        }
      ],
      "name": "safeTransferFrom",
      "outputs": [],
      "stateMutability": "nonpayable",
      "type": "function"
    },
    {
      "inputs": [
        {
          "internalType": "address",
          "name": "from",
          "type": "address"
        },
        {
          "internalType": "address",
          "name": "to",
          "type": "address"
        },
        {
          "internalType": "uint256",
          "name": "tokenId",
          "type": "uint256"
        },
        {
          "internalType": "bytes",
          "name": "data",
          "type": "bytes"
        }
      ],
      "name": "safeTransferFrom",
      "outputs": [],
      "stateMutability": "nonpayable",
      "type": "function"
    },
    {
      "inputs": [
        {
          "internalType": "address",
          "name": "operator",
          "type": "address"
        },
        {
          "internalType": "bool",
          "name": "approved",
          "type": "bool"
        }
      ],
      "name": "setApprovalForAll",
      "outputs": [],
      "stateMutability": "nonpayable",
      "type": "function"
    },
    {
      "inputs": [
        {
          "internalType": "bytes4",
          "name": "interfaceId",
          "type": "bytes4"
        }
      ],
      "name": "supportsInterface",
      "outputs": [
        {
          "internalType": "bool",
          "name": "",
          "type": "bool"
        }
      ],
      "stateMutability": "view",
      "type": "function"
    },
    {
      "inputs": [],
      "name": "symbol",
      "outputs": [
        {
          "internalType": "string",
          "name": "",
          "type": "string"
        }
      ],
      "stateMutability": "view",
      "type": "function"
    },
    {
      "inputs": [
        {
          "internalType": "uint256",
          "name": "tokenId",
          "type": "uint256"
        }
      ],
      "name": "tokenURI",
      "outputs": [
        {
          "internalType": "string",
          "name": "",
          "type": "string"
        }
      ],
      "stateMutability": "view",
      "type": "function"
    },
    {
      "inputs": [
        {
          "internalType": "address",
          "name": "from",
          "type": "address"
        },
        {
          "internalType": "address",
          "name": "to",
          "type": "address"
        },
        {
          "internalType": "uint256",
          "name": "tokenId",
          "type": "uint256"
        }
      ],
      "name": "transferFrom",
      "outputs": [],
      "stateMutability": "nonpayable",
      "type": "function"
    },
    {
      "inputs": [
        {
          "internalType": "uint256",
          "name": "_listPrice",
          "type": "uint256"
        }
      ],
      "name": "updateListPrice",
      "outputs": [],
      "stateMutability": "payable",
      "type": "function"
    }
  ],
  "bytecode": "0x6080604052662386f26fc10000600a553480156200001c57600080fd5b50604080518082018252600e81526d4e46544d61726b6574706c61636560901b6020808301918252835180850190945260048452634e46544d60e01b9084015281519192916200006f91600091620000a0565b50805162000085906001906020840190620000a0565b5050600780546001600160a01b031916331790555062000183565b828054620000ae9062000146565b90600052602060002090601f016020900481019282620000d257600085556200011d565b82601f10620000ed57805160ff19168380011785556200011d565b828001600101855582156200011d579182015b828111156200011d57825182559160200191906001019062000100565b506200012b9291506200012f565b5090565b5b808211156200012b576000815560010162000130565b600181811c908216806200015b57607f821691505b602082108114156200017d57634e487b7160e01b600052602260045260246000fd5b50919050565b6120b780620001936000396000f3fe6080604052600436106101355760003560e01c806395d89b41116100ab578063c322579c1161006f578063c322579c14610354578063c87b56dd14610367578063d1a88ae514610387578063e0391b091461039c578063e985e9c5146103b1578063ef2d1746146103fa57600080fd5b806395d89b41146102bf57806398c3df16146102d45780639b1225c414610301578063a22cb46514610314578063b88d4fde1461033457600080fd5b806342842e0e116100fd57806342842e0e1461020b578063629cb2e41461022b5780636352211e1461024d57806368f1945f1461026d57806370a082311461028c57806372b3b620146102ac57600080fd5b806301ffc9a71461013a57806306fdde031461016f578063081812fc14610191578063095ea7b3146101c957806323b872dd146101eb575b600080fd5b34801561014657600080fd5b5061015a610155366004611cd4565b61040f565b60405190151581526020015b60405180910390f35b34801561017b57600080fd5b5061018461043a565b6040516101669190611ea0565b34801561019d57600080fd5b506101b16101ac366004611d62565b6104cc565b6040516001600160a01b039091168152602001610166565b3480156101d557600080fd5b506101e96101e4366004611cab565b6104f3565b005b3480156101f757600080fd5b506101e9610206366004611bbd565b61060e565b34801561021757600080fd5b506101e9610226366004611bbd565b61063f565b34801561023757600080fd5b5061024061065a565b6040516101669190611e52565b34801561025957600080fd5b506101b1610268366004611d62565b61089f565b34801561027957600080fd5b50600a545b604051908152602001610166565b34801561029857600080fd5b5061027e6102a7366004611b71565b6108ff565b61027e6102ba366004611d0c565b610985565b3480156102cb57600080fd5b50610184610a68565b3480156102e057600080fd5b506102f46102ef366004611d62565b610a77565b6040516101669190611f97565b6101e961030f366004611d62565b610ae1565b34801561032057600080fd5b506101e961032f366004611c71565b610c3f565b34801561034057600080fd5b506101e961034f366004611bf8565b610c4e565b6101e9610362366004611d62565b610c80565b34801561037357600080fd5b50610184610382366004611d62565b610ceb565b34801561039357600080fd5b506102f4610dfc565b3480156103a857600080fd5b50610240610e73565b3480156103bd57600080fd5b5061015a6103cc366004611b8b565b6001600160a01b03918216600090815260056020908152604080832093909416825291909152205460ff1690565b34801561040657600080fd5b5061027e610fba565b60006001600160e01b03198216632483248360e11b1480610434575061043482610fca565b92915050565b60606000805461044990611fe9565b80601f016020809104026020016040519081016040528092919081815260200182805461047590611fe9565b80156104c25780601f10610497576101008083540402835291602001916104c2565b820191906000526020600020905b8154815290600101906020018083116104a557829003601f168201915b5050505050905090565b60006104d78261101a565b506000908152600460205260409020546001600160a01b031690565b60006104fe8261089f565b9050806001600160a01b0316836001600160a01b031614156105715760405162461bcd60e51b815260206004820152602160248201527f4552433732313a20617070726f76616c20746f2063757272656e74206f776e656044820152603960f91b60648201526084015b60405180910390fd5b336001600160a01b038216148061058d575061058d81336103cc565b6105ff5760405162461bcd60e51b815260206004820152603d60248201527f4552433732313a20617070726f76652063616c6c6572206973206e6f7420746f60448201527f6b656e206f776e6572206f7220617070726f76656420666f7220616c6c0000006064820152608401610568565b610609838361107c565b505050565b61061833826110ea565b6106345760405162461bcd60e51b815260040161056890611eb3565b610609838383611168565b61060983838360405180602001604052806000815250610c4e565b6060600061066760085490565b905060008060005b838110156106ff5733600b6000610687846001611fa5565b81526020810191909152604001600020600101546001600160a01b031614806106da575033600b60006106bb846001611fa5565b81526020810191909152604001600020600201546001600160a01b0316145b156106ed576106ea600184611fa5565b92505b806106f781612024565b91505061066f565b5060008267ffffffffffffffff81111561072957634e487b7160e01b600052604160045260246000fd5b60405190808252806020026020018201604052801561076257816020015b61074f611a18565b8152602001906001900390816107475790505b50905060005b848110156108965733600b6000610780846001611fa5565b81526020810191909152604001600020600101546001600160a01b031614806107d3575033600b60006107b4846001611fa5565b81526020810191909152604001600020600201546001600160a01b0316145b156108845760006107e5826001611fa5565b6000818152600b6020908152604091829020825160a0810184528154815260018201546001600160a01b039081169382019390935260028201549092169282019290925260038201546060820152600482015460ff16151560808201528551929350909185908790811061086957634e487b7160e01b600052603260045260246000fd5b602090810291909101015261087f600186611fa5565b945050505b8061088e81612024565b915050610768565b50949350505050565b6000818152600260205260408120546001600160a01b0316806104345760405162461bcd60e51b8152602060048201526018602482015277115490cdcc8c4e881a5b9d985b1a59081d1bdad95b88125160421b6044820152606401610568565b60006001600160a01b0382166109695760405162461bcd60e51b815260206004820152602960248201527f4552433732313a2061646472657373207a65726f206973206e6f7420612076616044820152683634b21037bbb732b960b91b6064820152608401610568565b506001600160a01b031660009081526003602052604090205490565b6000600a5434146109d85760405162461bcd60e51b815260206004820152601960248201527f73656e6420656e6f75676820657468657220746f206c697374000000000000006044820152606401610568565b60008211610a285760405162461bcd60e51b815260206004820181905260248201527f7468652050726963652073686f756c64206e6f74206265206e656761746976656044820152606401610568565b610a36600880546001019055565b6000610a4160085490565b9050610a4d33826112cc565b610a5781856112e6565b610a6181846113b8565b9392505050565b60606001805461044990611fe9565b610a7f611a18565b506000908152600b6020908152604091829020825160a0810184528154815260018201546001600160a01b03908116938201939093526002820154909216928201929092526003820154606082015260049091015460ff161515608082015290565b6000818152600b6020526040902060030154348114610b685760405162461bcd60e51b815260206004820152603f60248201527f506c65617365207375626d6974207468652061736b696e67207072696365206660448201527f6f7220746865204e465420696e206f7264657220746f207075726368616765006064820152608401610568565b6000828152600b602052604090206002810180546004909201805460ff191660011790556001600160a01b03198216331790556001600160a01b0316610bb2600980546001019055565b610bbd303385611168565b610bc730846104f3565b600754600a546040516001600160a01b039092169181156108fc0291906000818181858888f19350505050158015610c03573d6000803e3d6000fd5b506040516001600160a01b038216903480156108fc02916000818181858888f19350505050158015610c39573d6000803e3d6000fd5b50505050565b610c4a338383611455565b5050565b610c5833836110ea565b610c745760405162461bcd60e51b815260040161056890611eb3565b610c3984848484611524565b6007546001600160a01b03163314610ce65760405162461bcd60e51b8152602060048201526024808201527f4f6e6c79206f776e65722063616e2075706461746520746865206c69737420706044820152637269636560e01b6064820152608401610568565b600a55565b6060610cf68261101a565b60008281526006602052604081208054610d0f90611fe9565b80601f0160208091040260200160405190810160405280929190818152602001828054610d3b90611fe9565b8015610d885780601f10610d5d57610100808354040283529160200191610d88565b820191906000526020600020905b815481529060010190602001808311610d6b57829003601f168201915b505050505090506000610da660408051602081019091526000815290565b9050805160001415610db9575092915050565b815115610deb578082604051602001610dd3929190611de6565b60405160208183030381529060405292505050919050565b610df484611557565b949350505050565b610e04611a18565b6000610e0f60085490565b6000908152600b6020908152604091829020825160a0810184528154815260018201546001600160a01b03908116938201939093526002820154909216928201929092526003820154606082015260049091015460ff161515608082015292915050565b60606000610e8060085490565b905060008167ffffffffffffffff811115610eab57634e487b7160e01b600052604160045260246000fd5b604051908082528060200260200182016040528015610ee457816020015b610ed1611a18565b815260200190600190039081610ec95790505b5090506000805b83811015610fb1576000610f00826001611fa5565b6000818152600b6020908152604091829020825160a0810184528154815260018201546001600160a01b039081169382019390935260028201549092169282019290925260038201546060820152600482015460ff161515608082015286519293509091869086908110610f8457634e487b7160e01b600052603260045260246000fd5b6020908102919091010152610f9a600185611fa5565b935050508080610fa990612024565b915050610eeb565b50909392505050565b6000610fc560085490565b905090565b60006001600160e01b031982166380ac58cd60e01b1480610ffb57506001600160e01b03198216635b5e139f60e01b145b8061043457506301ffc9a760e01b6001600160e01b0319831614610434565b6000818152600260205260409020546001600160a01b03166110795760405162461bcd60e51b8152602060048201526018602482015277115490cdcc8c4e881a5b9d985b1a59081d1bdad95b88125160421b6044820152606401610568565b50565b600081815260046020526040902080546001600160a01b0319166001600160a01b03841690811790915581906110b18261089f565b6001600160a01b03167f8c5be1e5ebec7d5bd14f71427d1e84f3dd0314c0f7b2291e5b200ac8c7c3b92560405160405180910390a45050565b6000806110f68361089f565b9050806001600160a01b0316846001600160a01b0316148061113d57506001600160a01b0380821660009081526005602090815260408083209388168352929052205460ff165b80610df45750836001600160a01b0316611156846104cc565b6001600160a01b031614949350505050565b826001600160a01b031661117b8261089f565b6001600160a01b0316146111a15760405162461bcd60e51b815260040161056890611f52565b6001600160a01b0382166112035760405162461bcd60e51b8152602060048201526024808201527f4552433732313a207472616e7366657220746f20746865207a65726f206164646044820152637265737360e01b6064820152608401610568565b826001600160a01b03166112168261089f565b6001600160a01b03161461123c5760405162461bcd60e51b815260040161056890611f52565b600081815260046020908152604080832080546001600160a01b03199081169091556001600160a01b0387811680865260038552838620805460001901905590871680865283862080546001019055868652600290945282852080549092168417909155905184937fddf252ad1be2c89b69c2b068fc378daa952ba7f163c4a11628f55a4df523b3ef91a4505050565b610c4a8282604051806020016040528060008152506115ca565b6000828152600260205260409020546001600160a01b03166113615760405162461bcd60e51b815260206004820152602e60248201527f45524337323155524953746f726167653a2055524920736574206f66206e6f6e60448201526d32bc34b9ba32b73a103a37b5b2b760911b6064820152608401610568565b6000828152600660209081526040909120825161138092840190611a46565b506040518281527ff8e1a15aba9398e019f0b49df1a4fde98ee17ae345cb5f6b5e2c27f5033e8ce79060200160405180910390a15050565b6040805160a081018252838152306020808301828152338486018181526060860188815260016080880181815260008c8152600b9097529890952096518755925193860180546001600160a01b039586166001600160a01b03199182161790915590516002870180549190951691161790925551600384015592516004909201805492151560ff1990931692909217909155610c4a919084611168565b816001600160a01b0316836001600160a01b031614156114b75760405162461bcd60e51b815260206004820152601960248201527f4552433732313a20617070726f766520746f2063616c6c6572000000000000006044820152606401610568565b6001600160a01b03838116600081815260056020908152604080832094871680845294825291829020805460ff191686151590811790915591519182527f17307eab39ab6107e8899845ad3d59bd9653f200f220920489ca2b5937696c31910160405180910390a3505050565b61152f848484611168565b61153b848484846115fd565b610c395760405162461bcd60e51b815260040161056890611f00565b60606115628261101a565b600061157960408051602081019091526000815290565b905060008151116115995760405180602001604052806000815250610a61565b806115a38461170a565b6040516020016115b4929190611de6565b6040516020818303038152906040529392505050565b6115d483836117b5565b6115e160008484846115fd565b6106095760405162461bcd60e51b815260040161056890611f00565b60006001600160a01b0384163b156116ff57604051630a85bd0160e11b81526001600160a01b0385169063150b7a0290611641903390899088908890600401611e15565b602060405180830381600087803b15801561165b57600080fd5b505af192505050801561168b575060408051601f3d908101601f1916820190925261168891810190611cf0565b60015b6116e5573d8080156116b9576040519150601f19603f3d011682016040523d82523d6000602084013e6116be565b606091505b5080516116dd5760405162461bcd60e51b815260040161056890611f00565b805181602001fd5b6001600160e01b031916630a85bd0160e11b149050610df4565b506001949350505050565b6060600061171783611940565b600101905060008167ffffffffffffffff81111561174557634e487b7160e01b600052604160045260246000fd5b6040519080825280601f01601f19166020018201604052801561176f576020820181803683370190505b5090508181016020015b600019016f181899199a1a9b1b9c1cb0b131b232b360811b600a86061a8153600a85049450846117a8576117ad565b611779565b509392505050565b6001600160a01b03821661180b5760405162461bcd60e51b815260206004820181905260248201527f4552433732313a206d696e7420746f20746865207a65726f20616464726573736044820152606401610568565b6000818152600260205260409020546001600160a01b0316156118705760405162461bcd60e51b815260206004820152601c60248201527f4552433732313a20746f6b656e20616c7265616479206d696e746564000000006044820152606401610568565b6000818152600260205260409020546001600160a01b0316156118d55760405162461bcd60e51b815260206004820152601c60248201527f4552433732313a20746f6b656e20616c7265616479206d696e746564000000006044820152606401610568565b6001600160a01b038216600081815260036020908152604080832080546001019055848352600290915280822080546001600160a01b0319168417905551839291907fddf252ad1be2c89b69c2b068fc378daa952ba7f163c4a11628f55a4df523b3ef908290a45050565b60008072184f03e93ff9f4daa797ed6e38ed64bf6a1f0160401b831061197f5772184f03e93ff9f4daa797ed6e38ed64bf6a1f0160401b830492506040015b6d04ee2d6d415b85acef810000000083106119ab576d04ee2d6d415b85acef8100000000830492506020015b662386f26fc1000083106119c957662386f26fc10000830492506010015b6305f5e10083106119e1576305f5e100830492506008015b61271083106119f557612710830492506004015b60648310611a07576064830492506002015b600a83106104345760010192915050565b6040805160a08101825260008082526020820181905291810182905260608101829052608081019190915290565b828054611a5290611fe9565b90600052602060002090601f016020900481019282611a745760008555611aba565b82601f10611a8d57805160ff1916838001178555611aba565b82800160010185558215611aba579182015b82811115611aba578251825591602001919060010190611a9f565b50611ac6929150611aca565b5090565b5b80821115611ac65760008155600101611acb565b600067ffffffffffffffff80841115611afa57611afa612055565b604051601f8501601f19908116603f01168101908282118183101715611b2257611b22612055565b81604052809350858152868686011115611b3b57600080fd5b858560208301376000602087830101525050509392505050565b80356001600160a01b0381168114611b6c57600080fd5b919050565b600060208284031215611b82578081fd5b610a6182611b55565b60008060408385031215611b9d578081fd5b611ba683611b55565b9150611bb460208401611b55565b90509250929050565b600080600060608486031215611bd1578081fd5b611bda84611b55565b9250611be860208501611b55565b9150604084013590509250925092565b60008060008060808587031215611c0d578081fd5b611c1685611b55565b9350611c2460208601611b55565b925060408501359150606085013567ffffffffffffffff811115611c46578182fd5b8501601f81018713611c56578182fd5b611c6587823560208401611adf565b91505092959194509250565b60008060408385031215611c83578182fd5b611c8c83611b55565b915060208301358015158114611ca0578182fd5b809150509250929050565b60008060408385031215611cbd578182fd5b611cc683611b55565b946020939093013593505050565b600060208284031215611ce5578081fd5b8135610a618161206b565b600060208284031215611d01578081fd5b8151610a618161206b565b60008060408385031215611d1e578182fd5b823567ffffffffffffffff811115611d34578283fd5b8301601f81018513611d44578283fd5b611d5385823560208401611adf565b95602094909401359450505050565b600060208284031215611d73578081fd5b5035919050565b60008151808452611d92816020860160208601611fbd565b601f01601f19169290920160200192915050565b805182526020808201516001600160a01b039081169184019190915260408083015190911690830152606080820151908301526080908101511515910152565b60008351611df8818460208801611fbd565b835190830190611e0c818360208801611fbd565b01949350505050565b6001600160a01b0385811682528416602082015260408101839052608060608201819052600090611e4890830184611d7a565b9695505050505050565b6020808252825182820181905260009190848201906040850190845b81811015611e9457611e81838551611da6565b9284019260a09290920191600101611e6e565b50909695505050505050565b602081526000610a616020830184611d7a565b6020808252602d908201527f4552433732313a2063616c6c6572206973206e6f7420746f6b656e206f776e6560408201526c1c881bdc88185c1c1c9bdd9959609a1b606082015260800190565b60208082526032908201527f4552433732313a207472616e7366657220746f206e6f6e20455243373231526560408201527131b2b4bb32b91034b6b83632b6b2b73a32b960711b606082015260800190565b60208082526025908201527f4552433732313a207472616e736665722066726f6d20696e636f72726563742060408201526437bbb732b960d91b606082015260800190565b60a081016104348284611da6565b60008219821115611fb857611fb861203f565b500190565b60005b83811015611fd8578181015183820152602001611fc0565b83811115610c395750506000910152565b600181811c90821680611ffd57607f821691505b6020821081141561201e57634e487b7160e01b600052602260045260246000fd5b50919050565b60006000198214156120385761203861203f565b5060010190565b634e487b7160e01b600052601160045260246000fd5b634e487b7160e01b600052604160045260246000fd5b6001600160e01b03198116811461107957600080fdfea264697066735822122010fa8253a485cb8b409cd2c9de7eefb5ee33bdebc99356f397b58a100f85203164736f6c63430008040033",
  "linkReferences": {},
  "deployedLinkReferences": {}
}